:020000040800F2
:10000000708001206102000885800008E95A00081C
:100010004D750008210D00088D9F000800000000AC
:10002000000000000000000000000000A101000826
:10003000691E000800000000FD010008B1980008DA
:100040007B0200087B0200087B0200087B0200089C
:100050007B0200087B0200087B0200087B0200088C
:10006000891E00088F1E00087B0200085D1D000825
:10007000691D00087B0200087B0200087B02000863
:10008000751D00087B0200087B0200087B02000847
:10009000250D00087B0200087B0200087B02000897
:1000A0007B0200087B0200087B0200087B0200083C
:1000B0007B0200087B0200087B0200087B0200082C
:1000C0007B0200087B0200087B0200087B0200081C
:1000D0007B020008759E00088D9E0008A59E000802
:1000E0006B1E00087B0200087B0200087B020008F0
:1000F0007B0200087B0200087B0200087B020008EC
:100100007B0200087B0200087B0200087B020008DB
:100110007B020008619C00087B02000881990008AE
:10012000811D0008951D0008A11D0008AD1D0008D7
:10013000B91D000800000000000000007B0200085C
:10014000310D00087B0200087B0200087B020008DA
:100150007B0200087B0200087B020008BD9E0008AD
:100160007B0200087B0200087B0200087B0200087B
:100170007B0200087B020008000000000000000075
:100180007B0200087B020008DFF810D000F0BEFB05
:1001900000480047C5AE0008AFF300807080012022
:1001A0002C4B19680868B0E8F04F80F30988BFF35A
:1001B0006F8F4FF0000080F311887047000000003F
:1001C00008480068006880F308884FF0000080F35A
:1001D000148862B661B6BFF34F8FBFF36F8F00DF35
:1001E00000BF00BF08ED00E0DFF80C00016841F43B
:1001F00070010160704700BF88ED00E0EFF30980F7
:10020000BFF36F8F134B1A681EF0100F08BF20ED5D
:10021000108A20E9F04F106009B44FF0500080F3CD
:100220001188BFF34F8FBFF36F8F0BF007FD4FF0B7
:10023000000080F3118809BC19680868B0E8F04F25
:100240001EF0100F08BFB0EC108A80F30988BFF3CE
:100250006F8F70474C000020EFF30580704700005F
:100260000648804706480047FEE7FEE7FEE7FEE750
:10027000FEE7FEE7FEE7FEE7FEE7FEE7719900080E
:10028000890100082DE9F05F0546002092469B4653
:1002900088460646814640241BE02846414647469C
:1002A000224600F0DEF953465A46C01A914110D357
:1002B00011461846224600F0C5F92D1A67EB0108D1
:1002C0004F4622460120002100F0BCF917EB00093F
:1002D0004E41201EA4F10104DFDC484631462A4687
:1002E0004346BDE8F09F00000649074A08685043AE
:1002F00043F2390210440860400870470149086021
:1003000070470000640400206D4EC64110B540EAFD
:1003100001040346A40703D009E010C9121F10C34B
:10032000042AFAD203E011F8014B03F8014B521EE4
:10033000F9D210BDD2B201E000F8012B491EFBD268
:1003400070470022F6E710B513460A4604461946E0
:10035000FFF7F0FF204610BD421C10F8011B0029DA
:10036000FBD1801A70472DE9FE4F804681EA0300D9
:10037000C00F0C46009021F0004123F00045B8EB7F
:100380000200A94105D24046214690461C460B4634
:10039000024623F00040104347D0270DC7F30A0060
:1003A000C3F30A510290401A019040286BDAC3F35C
:1003B000130040F4801B0098924620B10023D2EB3A
:1003C000030A63EB0B0B01985946C0F140025046FB
:1003D00000F038F906460D4650465946019A00F09D
:1003E00050F910EB08006141002487EA115284EAB9
:1003F000E7731A4340D0009A62B3019A012A4FEA88
:10040000075215DC001B61EB02014FF0004202EACB
:100410000752CDE90042001C41F5801132462B46BF
:1004200000F087F903B0BDE8F08F40462146F9E7B8
:10043000001B61EB0201001C41F5801300185B41B9
:100440002018A2F5001747EB030140EAD570B61952
:100450006D4111E06D084FEA360645EAC0754FEA76
:100460000752001B61EB0201001C41F58011490895
:100470004FEA30000019514132462B4603B0BDE827
:10048000F04F00F047B90098012240000023D0EB64
:10049000020263EBE073009821464FEAE074B8EB88
:1004A000000061EB0401E9E783F000435BE781F0C2
:1004B000004158E72DE9FE4F81EA030404F00044AF
:1004C00021F0004100944FF0000B23F0004350EA6C
:1004D00001045ED052EA03045BD0C3F30A54C1F3B3
:1004E0000A552C44A4F2F3340194A0FB0254C1F346
:1004F000130141F48011C3F3130343F4801301FB90
:10050000024400FB034E840A970A44EA815447EAF6
:100510008357A4FB076802958D0A05FB07854FEA00
:10052000932C04FB0C542705029D4FEA065847EA1A
:100530001637B5EB08056EEB070C870E920E47EAEF
:10054000811742EA8312A7FB0201B6EB0B0164EBB1
:1005500000042B0D43EA0C335E1844EB1C50DA46C2
:100560005146E7FB0201C5F313044FEA0B3343EA9C
:1005700014534FEA0432019C43EA0603A4F10C042D
:100580000294009CCDE900B400F0D3F803B0BDE8BC
:10059000F08F00200146F9E70EB5C10F80EAE07048
:1005A0000844CA07002140F233438DE80E000A4692
:1005B0000B4600F0BEF803B000BD00F0004230F082
:1005C00000400AD0C10D01F56071C0F3160042EA87
:1005D0000151C2084007114370470020014670478F
:1005E00001F0004330B421F0004150EA010206D08E
:1005F0000A0DA2F56072C1F31301002A02DC30BCBF
:1006000000207047440F44EAC104C100E01830BC28
:1006100000EBC25000F047B830B50B460146002051
:100620002022012409E021FA02F59D4205D303FAB4
:1006300002F5491B04FA02F52844151EA2F1010235
:10064000F1DC30BD202A04DB203A00FA02F1002060
:1006500070479140C2F1200320FA03F31943904000
:100660007047202A04DB203A21FA02F0002170476B
:1006700021FA02F3D040C2F120029140084319460A
:100680007047202A06DBCB17203A41FA02F043EAF2
:10069000E07306E041FA02F3D040C2F1200291403B
:1006A0000843194670470029A8BF7047401C4900FD
:1006B00008BF20F00100704710B4B0FA80FC00FAC7
:1006C0000CF050EA010404BF10BC704749B1CCF1F2
:1006D000200421FA04F411FA0CF118BF012121437E
:1006E0000843A3EB0C01CB1D4FEA00614FEA102039
:1006F00042BF002010BC704700EBC35010440029DB
:10070000A4BF10BC7047401C490008BF20F0010086
:1007100010BC704710B5141E73F1000408DA401CB9
:1007200041F1000192185B411A4301D120F0010010
:1007300010BD2DE9F04D92469B4611B1B1FA81F200
:1007400002E0B0FA80F220329046FFF77BFF0446C9
:100750000F4640EA0A0041EA0B0153465A46084355
:1007600013D0114653EA010019D0C8F14002504697
:10077000FFF777FF05460E46504659464246FFF7BB
:1007800061FF084305D0012004E020463946BDE85A
:10079000F08D0020054346EAE0762C4337430A9863
:1007A0006305E40AA0EB08000022FD0A44EA47546E
:1007B0000A3002D500200146E9E701051019694118
:1007C000DDE9084500196941BDE8F04DA2E72DE9D2
:1007D000F04D81EA030404F0004B21F0004514467B
:1007E0004FF0000A23F0004150EA050220D054EAFD
:1007F00001021DD0C5F30A570246C5F31303C1F326
:100800001300C1F30A5640F4801543F48013A7EB9C
:100810000608101BD64608F2FD3873EB050002D31C
:1008200008F1010801E092185B41B8F1000F03DA0A
:1008300000200146BDE8F08D00204FF480110646EF
:1008400084460EE0171B73EB050705D3121B63EB01
:10085000050306434CEA010C49084FEA30009218A0
:100860005B4150EA0107EDD152EA030012D082EA5F
:10087000040083EA0501084305D0101BAB4106D2F2
:100880000122002306E000224FF0004302E06FF057
:10089000010253101AEB06004CEB085110EB0A0052
:1008A00041EB0B01BDE8F04DFFF734BFC1F30A5235
:1008B000C1F3130140F2FF3341F480119A4202DA8E
:1008C00000200146704740F233439A42A2F233427D
:1008D00002DC5242FFF7C5BEFFF7B4BE30B5041EBE
:1008E00071F1000404DB4FF00044404264EB01016D
:1008F000141E73F1000405DB1C464FF00043524206
:1009000063EB0403994208BF904230BD064C074D8B
:1009100006E0E06840F0010394E8070098471034CF
:10092000AC42F6D3FFF734FCCC890108EC8901080E
:1009300070B58C1810F8015B15F0070301D110F8A1
:10094000013B2A1106D110F8012B03E010F8016BCE
:1009500001F8016B5B1EF9D12B0705D40023521E51
:100960000DD401F8013BFAE710F8013BCB1A921CB9
:1009700003E013F8015B01F8015B521EF9D5A142B7
:10098000D8D3002070BD43604280018070470000D2
:10099000464910B54A6822F440324A604A684368C2
:1009A0001A434A6001684A6822F480724A6001680A
:1009B0004A68036942EA03224A6001684A6822F0F1
:1009C00040724A6001684A6883681A434A60016855
:1009D0008A6822F400628A6001688A68C3681A43E0
:1009E0008A60816A6FF07062D14201688A6822F081
:1009F00070628A6001688A680CD0836A1A438A60D0
:100A000001688A6822F040528A6001688A68C36A75
:100A10001A4301E022F040528A6001688A6822F09D
:100A200002028A6001688A68037E42EA43028A60A1
:100A300090F82010002901684A680FD042F4006243
:100A40004A6001684A6822F460424A6001684A6864
:100A5000174C436A04EB43331A4301E022F400626B
:100A60004A600168CA6A22F47002CA620168CA6AEE
:100A7000838B104C04EB03531A43CA6201688A68E3
:100A800022F400728A6001688A6890F8303042EA85
:100A900043228A6001688A6822F480628A60016861
:100AA0008A68406942EA8020886010BD00230140C6
:100AB00000E0FFFF0000F0FF30B41446054A126862
:100AC000904204D1204630BC9AB200F005B830BC48
:100AD00070470000C80300202DE9F04117460D467D
:100AE00006461A4C02F0B6FF6060194C6068401C64
:100AF000606002F0AFFF61684FF47A725143B1FB5E
:100B0000F0F000EE100A11483A46B8EE400A3146BD
:100B1000143884ED030AFFF7F9FB0E49012000BFEA
:100B200051F83020AA420BD101EBC00252683AB111
:100B300001EBC0004168BDE8F041044814380847A3
:100B4000401C0728ECDDBDE8F08100006873002040
:100B5000C8030020F8020020004870476873002096
:100B600010B500F049F81C480823012201681B4811
:100B700000F01EF91A4808230122016817481830AE
:100B800000F016F917480823012201681348303095
:100B900000F00EF914480823012201680F4848307C
:100BA00000F006F911480823012201680B48603063
:100BB00000F0FEF80E48082301220168074878304B
:100BC00000F0F6F80B480823012201680348BDE84D
:100BD0001040903000F0ECB8C8C80008AC7300209A
:100BE000CCC80008D0C80008D4C80008C0C8000895
:100BF000C4C80008D8C8000810B5124C02F02AFF7B
:100C000044F8040F00209FED100AE07484ED050AFB
:100C100084ED060A84ED070A84F8200084ED090AB1
:100C200084ED0A0A312184F82C10012184F82D105A
:100C3000422184F82E1084ED0C0A84F8340084F8E4
:100C4000350010BD68730020000000000248816874
:100C5000491C816070470000C80300202DE9F04165
:100C600000F03CF8134D0420287002F0F3FE064615
:100C70000024114FDFF8448009E000BF02F0EAFED3
:100C8000801B022803D3BDE8F041FFF7DFBF3868BF
:100C900002F08BF80028F1D008EBC400416811B1D4
:100CA000044828388847641C042CF0DB0120287095
:100CB000BDE8F08168730020C803002038030020DD
:100CC000054C02E001200AF075F920680028F9D0EF
:100CD000FFF7C4FFF6E70000D803002070B50F4C03
:100CE00005F094F9054601F005FDC17D891CE1750B
:100CF00090ED040A84ED060A95ED0C0A84ED070ACE
:100D000095ED090A84ED080A95ED0D0A84ED0D0AAA
:100D100005F0B0FB84F8390070BD00006873002056
:100D2000FEE70000014802F056B800006C07002002
:100D3000014802F050B800009407002010B558B1E7
:100D4000084C491E0BD310F8013B5340DBB234F87A
:100D5000133083EA1222F4E74FF6FF7010BD1046FD
:100D600010BD0000E6C9000810B504460F4A002176
:100D70000E208AB0944201D1059100E00590012235
:100D8000CDE9061203910491CDE90820009101916B
:100D900002916946204601F00DFF204602F03EFA1E
:100DA0000221204601F086FE0AB010BD6C0700202B
:100DB000C0E900120021C1600361816001757047C4
:100DC00070B50C460B69154606460968FFF774FEB8
:100DD0002A46304623692168BDE8704006F08EBE81
:100DE00008B56B4601F078FE08BD10B501200AF089
:100DF000E1F8FBE70249062088700120087070477F
:100E0000980200202DE9F0471D4608AB164604461F
:100E100093E88007DDE90C02C4E913020C222046A6
:100E2000FFF774FA2868C4F80F006868C4F8130064
:100E3000A868C4F81700D8F80010C4F81E10D8F835
:100E40000410C4F82210D8F80800C4F82600DAF814
:100E50000000E063DAF804002064DAF80800606457
:100E600004F13003214683E8C002BDE8F0470148A1
:100E700005F087BBCC7000207CB502F0EBFD224C66
:100E8000E168401A3C283DD302F0E4FDE0602078A0
:100E9000002601282BD0607801281C482DD005F0B1
:100EA00028FB0546002D2DD05FF00004C4EB041094
:100EB0004219661CF0B2012107F006FA05EB840026
:100EC000006B0068FFF779FBCDE90001F0B210A2DA
:100ED0000D2107F06DF9641C032CE7DB02B005F16E
:100EE0003C02BDE870400121042007F0EDB907483D
:100EF00005F01FFB05462670D4E705F025FB0546E7
:100F00006670CFE77CBD000098020020CC70002006
:100F10003A25302E3266000010B51E4CA07800280D
:100F200037D0002007F024F9A07801280CD002283F
:100F30000ED0032816D0042816D0052816D006286F
:100F400018D0072819D020E0134807F0B3F81CE0A8
:100F5000124807F0AFF805F08DFA0346052110A2FC
:100F6000042010E0124802E0124800E0124807F0A6
:100F70008BF80AE0FFF780FF07E005F033FB03463C
:100F80000EA20121032007F013F9BDE8104007F07D
:100F900031B910BD980200205ADC00085A1C010823
:100FA000496E66616E7472795F256400000000000E
:100FB0005AD800085AD400085AD00008546865204E
:100FC000436F6465203A25580000000010B507F013
:100FD00092F90949A1F1100005F0C1FA07F094F85F
:100FE00000F03AF8002007F0C3F807F003F90349CE
:100FF0000120887010BD0000DC70002098020020E5
:1010000010B5C1B2124CC0F307201229E170207153
:1010100011D0A12915D10F4805F06BFA002810D086
:101020002179012912D002290BD1006D002808D0A6
:10103000BDE810400047012804D0022801D1072054
:10104000A07010BDBDE81040FFF7D4BEC06CEDE746
:1010500098020020CC70002070B586B004F0D6FF56
:10106000044608F091F90646FFF776FD05460DF1B6
:10107000080C1C4B1C4A1DA106F11C008CE80F003B
:10108000001F1EA1CDE90001021F20A323A12748B4
:10109000FFF7B8FE02AE264B264A27A104F138001E
:1010A00086E80F00083828A1021DCDE900011F487D
:1010B00029A32DA15430FFF7A5FE2F4B2F4A30A1B5
:1010C00005F1180086E80F0031A11038CDE90001C4
:1010D000164833A305F1410235A1A830FFF792FE6F
:1010E00006B070BD61B7000869B7000873686F6F1C
:1010F000745F5370656564000000000033306D6DEF
:101100005F6F6666736574000000000031386D6DB6
:101110005F6F6666736574000000000031356D6DA9
:101120005F6F66667365740000000000DC7000206D
:1011300059B100085BB10008696D755F6461746145
:101140005F5F5F0000000000726F775F616E675F36
:101150005F5F5F00000000007961775F616E675F2D
:101160005F5F5F000000000070697463685F616E1C
:10117000675F5F5F5F00000095AC000897AC0008F8
:101180004361705F5374615F50616700000000004D
:101190007961775F7265665F616E670000000000CD
:1011A0007961775F72656C5F616E670000000000B7
:1011B0006361705F70726563656E740000000000AB
:1011C0000EB5184E184D194CFFF7A6FE30680128D1
:1011D00023D1174801220168684609F00BFF9DE8FA
:1011E0000D001149102881E80D0005D102F032FCF4
:1011F000A0606868FFF704FF02F02CFCA168401AA9
:1012000041F27071884208D3A078032805D00428E1
:1012100003D0052801D00220A0700A2009F0CAFEE0
:10122000D2E70000D8030020D871002098020020E7
:101230003400002070B54C484C4CA0F5006590ED92
:101240002B0A05F6CC0184ED040A90ED2C0A4FF42C
:10125000966284ED050A90ED2D0A84ED060A90ED64
:101260002E0A84ED070A90ED2F0A84ED080A90ED0E
:10127000300A84ED090AD5F8C408A062D5F8C80878
:10128000E06201F2DC70FFF741F805F67C514FF4A3
:10129000F07201F2DC70FFF739F805F65C71F022AC
:1012A00001F2DC70FFF732F8314810ED060A84EDE8
:1012B0000C0A10ED050A84ED0D0A10ED040A84ED08
:1012C0000E0A10ED030A84ED0F0A10ED020A84EDF8
:1012D000100A10ED010A84ED110A95ED0C0A84ED57
:1012E000030A0168A16490ED010A84ED130A90EDF0
:1012F000020A84ED140A90ED030A84ED150A90EDBC
:10130000040A84ED160A90ED050A84ED170A90EDA3
:10131000060A84ED180A90ED070A84ED190A90ED8B
:10132000080A84ED1A0A90ED090A84ED1B0A90ED73
:101330000A0A84ED1C0A90ED0B0A84ED1D0A90ED5B
:101340000C0A84ED1E0A90ED0D0A84ED1F0A018F30
:101350002180418F6180818FA180C18FE180B0F8B1
:101360004000208170BD000044E00020E403002024
:10137000A8E8002010B504469FED450A00F500607E
:1013800080ED2B0A9FED430A4FF4966280ED2C0A04
:10139000B6EE000A80ED2D0A80ED2E0A9FED3E0A82
:1013A0003F4980ED2F0A9FED3D0A80ED300A642011
:1013B000C4F8C408C4F8C80804F6CC00FEF7A6FFB9
:1013C0004FF4F072374904F67C50FEF79FFFF0228D
:1013D000354904F65C70FEF799FF04F58051B2EED2
:1013E000040A81ED130AF2EE000AC1ED140ADFEDE2
:1013F0002F0A5020C1ED150ADFED2D0A9FED341A9A
:10140000C1ED160AFBEE0F0AC1ED170ADFED290A3E
:10141000C1ED180ADFED280A41F8640FC4ED0C0A8B
:10142000DFED260A4B20C1ED010AF3EE040AC1EDFF
:10143000020ADFED230AC1ED030ADFED220AC1ED46
:10144000040ADFED210AC1ED050ADFED200AC1ED36
:10145000060ADFED200A81ED071AC1ED080ADFED6B
:101460001E0A81ED091AC1ED0A0ADFED1C0AC1ED61
:101470000B0ADFED1B0AC1ED0C0A81ED0D0A08878E
:10148000282048870A208887C887A1F8400010BD17
:101490006F12033C8FC2753C000016440000964357
:1014A0005C5C01080C610108EC6201080000FCC1F1
:1014B00000002042CDCC4C3D000078C200803B456E
:1014C000000048430000FA430000000000001643FB
:1014D00000006643000057430000A5430000484257
:1014E0000000C84210B504469FED450A00F50060B3
:1014F00080ED2B0A9FED430A4FF4966280ED2C0A93
:10150000B6EE000A80ED2D0A80ED2E0A9FED3E0A10
:101510003F4980ED2F0A9FED3D0A80ED300A64209F
:10152000C4F8C408C4F8C80804F6CC00FEF7EEFE00
:101530004FF4F072374904F67C50FEF7E7FEF022D4
:10154000354904F65C70FEF7E1FE04F58051B2EE19
:10155000040A81ED130AF2EE000AC1ED140ADFED70
:101560002F0A5020C1ED150ADFED2D0A9FED341A28
:10157000C1ED160AFBEE0F0AC1ED170ADFED290ACD
:10158000C1ED180ADFED280A41F8640FC4ED0C0A1A
:10159000DFED260A4B20C1ED010AF3EE040AC1ED8E
:1015A000020ADFED230AC1ED030ADFED220AC1EDD5
:1015B000040ADFED210AC1ED050ADFED200AC1EDC5
:1015C000060ADFED200A81ED071AC1ED080ADFEDFA
:1015D0001E0A81ED091AC1ED0A0ADFED1C0AC1EDF0
:1015E0000B0ADFED1B0AC1ED0C0A81ED0D0A08871D
:1015F000282048870A208887C887A1F8400010BDA6
:101600006F12033C8FC2753C000016440000C843B3
:10161000DC6301088C6801086C6A01080000FCC1E9
:1016200000002042CDCC4C3D000016C300803B455D
:10163000000048430000FA43000000000000164389
:1016400000006643000057430000A54300004842E5
:101650000000C84210B504469FED450A00F5006041
:1016600080ED2B0A9FED430A4FF4966280ED2C0A21
:10167000B6EE000A80ED2D0A80ED2E0A9FED3E0A9F
:101680003F4980ED2F0A9FED3D0A80ED300A64202E
:10169000C4F8C408C4F8C80804F6CC00FEF736FE47
:1016A0004FF4F072374904F67C50FEF72FFEF0221B
:1016B000354904F65C70FEF729FE04F58051B2EE60
:1016C000040A81ED130AF2EE000AC1ED140ADFEDFF
:1016D0002F0A5020C1ED150ADFED2D0A9FED341AB7
:1016E000C1ED160AFBEE0F0AC1ED170ADFED290A5C
:1016F000C1ED180ADFED280A41F8640FC4ED0C0AA9
:10170000DFED260A4B20C1ED010AF3EE040AC1ED1C
:10171000020ADFED230AC1ED030ADFED220AC1ED63
:10172000040ADFED210AC1ED050ADFED200AC1ED53
:10173000060ADFED200A81ED071AC1ED080ADFED88
:101740001E0A81ED091AC1ED0A0ADFED1C0AC1ED7E
:101750000B0ADFED1B0AC1ED0C0A81ED0D0A0887AB
:10176000282048870A208887C887A1F8400010BD34
:101770006F12033C8FC2753C000016440000C84342
:101780005C6B01080C700108EC7101080000FCC1E1
:1017900000002042CDCC4C3D000016C300803B45EC
:1017A000000048430000FA43000000000000164318
:1017B00000006643000057430000A5430000484274
:1017C0000000C84210B504469FED450A00F50060D0
:1017D00080ED2B0A9FED430A4FF4966280ED2C0AB0
:1017E000B6EE000A80ED2D0A80ED2E0A9FED3E0A2E
:1017F0003F4980ED2F0A9FED3D0A80ED300A6420BD
:10180000C4F8C408C4F8C80804F6CC00FEF77EFD8E
:101810004FF4F072374904F67C50FEF777FDF02262
:10182000354904F65C70FEF771FD04F58051B2EEA7
:10183000040A81ED130AF2EE000AC1ED140ADFED8D
:101840002F0A5020C1ED150ADFED2D0A9FED341A45
:10185000C1ED160AFBEE0F0AC1ED170ADFED290AEA
:10186000C1ED180ADFED280A41F8640FC4ED0C0A37
:10187000DFED260A4B20C1ED010AF3EE040AC1EDAB
:10188000020ADFED230AC1ED030ADFED220AC1EDF2
:10189000040ADFED210AC1ED050ADFED200AC1EDE2
:1018A000060ADFED200A81ED071AC1ED080ADFED17
:1018B0001E0A81ED091AC1ED0A0ADFED1C0AC1ED0D
:1018C0000B0ADFED1B0AC1ED0C0A81ED0D0A08873A
:1018D000282048870A208887C887A1F8400010BDC3
:1018E0006F12033C8FC2753C000016440000C843D1
:1018F000DC7201088C7701086C7901080000FCC1DA
:1019000000002042CDCC4C3D000016C300803B457A
:10191000000048430000FA430000000000001643A6
:1019200000006643000057430000A5430000484202
:101930000000C84210B504469FED450A00F500605E
:1019400080ED2B0A9FED430A4FF4966280ED2C0A3E
:10195000B6EE000A80ED2D0A80ED2E0A9FED3E0ABC
:101960003F4980ED2F0A9FED3D0A80ED300A64204B
:10197000C4F8C408C4F8C80804F6CC00FEF7C6FCD6
:101980004FF4F072374904F67C50FEF7BFFCF022AA
:10199000354904F65C70FEF7B9FC04F58051B2EEEF
:1019A000040A81ED130AF2EE000AC1ED140ADFED1C
:1019B0002F0A5020C1ED150ADFED2D0A9FED341AD4
:1019C000C1ED160AFBEE0F0AC1ED170ADFED290A79
:1019D000C1ED180ADFED280A41F8640FC4ED0C0AC6
:1019E000DFED260A4B20C1ED010AF3EE040AC1ED3A
:1019F000020ADFED230AC1ED030ADFED220AC1ED81
:101A0000040ADFED210AC1ED050ADFED200AC1ED70
:101A1000060ADFED200A81ED071AC1ED080ADFEDA5
:101A20001E0A81ED091AC1ED0A0ADFED1C0AC1ED9B
:101A30000B0ADFED1B0AC1ED0C0A81ED0D0A0887C8
:101A4000282048870A208887C887A1F8400010BD51
:101A50006F12033C8FC2753C000016440000C8435F
:101A60005C7A01080C7F0108EC8001080000FCC1D1
:101A700000002042CDCC4C3D000016C300803B4509
:101A8000000048430000FA43000000000000164335
:101A900000006643000057430000A5430000484291
:101AA0000000C84210B504469FED450A00F50060ED
:101AB00080ED2B0A9FED430A4FF4966280ED2C0ACD
:101AC000B6EE000A80ED2D0A80ED2E0A9FED3E0A4B
:101AD0003F4980ED2F0A9FED3D0A80ED300A6420DA
:101AE000C4F8C408C4F8C80804F6CC00FEF70EFC1D
:101AF0004FF4F072374904F67C50FEF707FCF022F1
:101B0000354904F65C70FEF701FC04F58051B2EE35
:101B1000040A81ED130AF2EE000AC1ED140ADFEDAA
:101B20002F0A5020C1ED150ADFED2D0A9FED341A62
:101B3000C1ED160AFBEE0F0AC1ED170ADFED290A07
:101B4000C1ED180ADFED280A41F8640FC4ED0C0A54
:101B5000DFED260A4B20C1ED010AF3EE040AC1EDC8
:101B6000020ADFED230AC1ED030ADFED220AC1ED0F
:101B7000040ADFED210AC1ED050ADFED200AC1EDFF
:101B8000060ADFED200A81ED071AC1ED080ADFED34
:101B90001E0A81ED091AC1ED0A0ADFED1C0AC1ED2A
:101BA0000B0ADFED1B0AC1ED0C0A81ED0D0A088757
:101BB000282048870A208887C887A1F8400010BDE0
:101BC0006F12033C8FC2753C000016440000C843EE
:101BD000DC8101088C8601086C8801080000FCC1CA
:101BE00000002042CDCC4C3D000016C300803B4598
:101BF000000048430000FA430000000000001643C4
:101C000000006643000057430000A543000048421F
:101C10000000C84210B51C48FFF7ACFB1B48FFF79B
:101C200061FC1B48FFF716FD1A48FFF7CBFD1A4869
:101C3000FFF780FE1948FFF735FF04F01BFC41F267
:101C4000A80400BF04F016FCC01E0628FAD2DFE884
:101C500000F003060F12151822460B4901E00B494C
:101C600022460F48FEF752FBBDE81040FFF7E2BAEC
:101C700022460749F5E722460649F2E72246064989
:101C8000EFE722460549ECE754740020FC8400206D
:101C9000A49500204CA60020F4B600209CC700208C
:101CA00044D8002038B50024234622461149124862
:101CB000009406F0A4F80F4900231A46F0310F48AB
:101CC000009406F09CF800231A460D490D48009434
:101CD00006F095F80A4900231A46F0310A480094A4
:101CE00006F08DF800231A4608490948009406F0CA
:101CF00086F838BDECE8002004640020246500204C
:101D0000CCEA00204466002064670020ACEC002090
:101D10008468002038B50024234622460A490B482F
:101D2000009406F06CF8084900231A46F031084880
:101D3000009406F064F800231A4606490648009409
:101D400006F05DF838BD00009CED0020206D0020FD
:101D5000406E00207CEF0020606F0020014801F001
:101D600051BB0000FC0D0020014801F04BBB0000FE
:101D70001C0F0020014801F045BB0000BC0E0020F4
:101D800010B504F0DBF8BDE81040014801F03ABBA3
:101D9000D0080020014801F035BB00007C0F002076
:101DA000014801F02FBB00005C0E0020014801F04B
:101DB00029BB000030090020014801F023BB0000CE
:101DC0000C07002001681823CAB2103AB2FBF3F2E4
:101DD000054B6FF30901032A9B5CC36500D9091DFC
:101DE0008165084670470000A0C8000810B501468C
:101DF00000208B698A6A4FF0C07453B1B3F5005F5D
:101E000015D072B1012A0CD0022A0AD0032A09D1B6
:101E100004E01AB1012A06D0022A03D1C96AC90115
:101E200000D5012010BDC96AA142FAD010BD002A18
:101E3000F7D0012AF2D0022AF3D0032AF3D010BD42
:101E400030B50468256825F4802525600468636042
:101E50008368402B036803D099600068C26030BD7E
:101E60009A600068C16030BD704710B54FF40050F3
:101E700001F0E4FC4FF4804001F0E0FCBDE81040CC
:101E80004FF4004001F0DABC042001F0D7BC082078
:101E900001F0D4BC72B6FEE7002229B101291AD0A4
:101EA00002291BD04FF440720E490B6823F4407393
:101EB0000B600B6813430B600A6822F0F8020A609B
:101EC0000A68022303EBC00002430A60086840F47A
:101ED0008030086070474FF48072E5E74FF400727D
:101EE000E2E70000103C02401348016889050FD565
:101EF000016821F400710160016841F40061016032
:101F0000016821F400610160016841F40071016021
:101F1000016849050FD5016821F4806101600168FD
:101F200041F480510160016821F480510160016831
:101F300041F4806101607047003C024008490A6832
:101F400022F440720A600A6842F004020A600A68D9
:101F50004FF4803343EA002002430A6070470000D8
:101F6000103C0240064A136823F440731360136860
:101F70001360136843F001031360017070470000A1
:101F8000103C0240094910B50C6824F440740C6000
:101F90000C6844F440740C600C6844F001040C605C
:101FA0000260BFF36F8F436010BD0000103C024021
:101FB000074A136823F440731360136843F4807373
:101FC0001360136843F00103136001807047000041
:101FD000103C0240074A136823F4407313601368EF
:101FE00043F400731360136843F00103136001604E
:101FF00070470000103C024017490868C2061748A5
:1020000005D5C26942F01002C26110220A600A6856
:10201000920605D5C26942F00802C26120220A6018
:102020000A68520605D5C26942F00402C261402224
:102030000A600A68120605D5C26942F00202C2614E
:1020400080220A600A68920705D5C26942F0200220
:10205000C2610220086070470C3C0240241000203E
:1020600070B5114904460020C86101F0F3FC064632
:102070000E4D09E0601C07D024B101F0EBFC801B81
:10208000A04201D9032070BD2868C003F2D428689B
:10209000C00701D001202860286810F0F200F2D0BB
:1020A000FFF7AAFF012070BD241000200C3C024065
:1020B00010B504462DED0A8B5FF0030004EBC00160
:1020C000401E002891ED061B81ED081B11ED021B3F
:1020D00081ED001BF2DC10EE100AFEF76EFAC4E987
:1020E000080194ED060B9FED321B51EC100B53ECE5
:1020F000112BFEF7DFF994ED040B9FED2F1B41EC44
:10210000190B53EC112B51EC100BFEF7D3F994ED96
:10211000020B9FED2B1B41EC180B53EC112B51ECD8
:10212000100BFEF7C7F994ED0E0B9FED271B41EC4A
:102130001A0B53EC112B51EC100BFEF7BBF994ED7D
:102140000C0B9FED231B41EC1B0B53EC112B51ECA3
:10215000100BFEF7AFF994ED0A0B9FED1F1B41EC3E
:102160001C0B53EC112B51EC100BFEF7A3F953ECA5
:102170001C2BFEF7F8F853EC1B2BFEF7F4F853EC8E
:102180001A2BFEF7F0F853EC182BFEF78DF953ECF1
:10219000192BFEF7E8F841EC100B84ED000BFEF76D
:1021A0001FFA206400EE100ABDEC0A8B10BD00007F
:1021B000401361C3D32BE93FD122DBF97E6A04408F
:1021C0001F85EB51B81E06405816F142DF82213FB1
:1021D0000DA661F88898423F7B979C24A7C0233FB7
:1021E00070B50E462DED028B0446B0EE408A01F02C
:1021F00031FC00EE100AD4ED020AB8EE400A30EECF
:10220000600ABCEEC00A10EE105A01F023FC00EE8A
:10221000100AB8EE400A84ED020AD4ED010AF5EE88
:10222000C00AF1EE10FA34DD10EE900AB0F17E5FD4
:102230002FDCB7EE000A96ED011A30EE600A20EEB0
:10224000011A00EE881A86ED001A86ED011A8DB18A
:1022500000EE105A9FED101AD4ED010AB8EE400AB4
:1022600020EE010A9FED0D1A20EE010A80EE801A81
:1022700084ED001A00EE105ADFED090AB8EE400AAC
:1022800080EE801A84ED031A96ED000ABDEC028BF5
:1022900070BDB0EE480AF9E7DB0FC9406F12833A10
:1022A00000007A4480ED010A9FED020A80ED020AE7
:1022B000704700000000000010B586B00C4600F02A
:1022C0007BF80290002000900220CDE9034001F04D
:1022D0009DFA05A9684601F005FA01F04FFA06B02B
:1022E00010BD0000A0F100624FF480418A4201D28B
:1022F00026487047254A524202448A4201D2244865
:102300007047234A524202448A4201D22148704710
:10231000204A524202448A4201D21F4870471E4955
:1023200049420144B1F5803F01D21C4870471B4926
:10233000494242184FF400318A4201D2184870478E
:10234000174A524202448A4201D216487047154A3F
:10235000524202448A4201D213487047124A524202
:1023600002448A4201D211487047104A5242024444
:102370008A4201D20E4870470D4A524202448A42B4
:1023800001D20C4870474FF00160704700400008D0
:102390000080000800C000080000010800000208DA
:1023A00000000408000006080000080800000A08F1
:1023B00000000C0800000E080021A0F100634FF49B
:1023C0008042934241D322490144914201D20121EA
:1023D0003BE020490144914201D2022135E01E49EF
:1023E0000144914201D203212FE01C490144B1F57F
:1023F000803F01D2042128E0194942184FF40031EE
:102400008A4201D2052120E0164A02448A4201D2C2
:1024100006211AE0144A02448A4201D2072114E03C
:10242000124A02448A4201D208210EE0104A0244B4
:102430008A4201D2092108E00E4A02448A4201D2AE
:102440000A2102E00C4A0B211044084670470000A4
:1024500000C0FFF70080FFF70040FFF70000FFF724
:102460000000FEF70000FCF70000FAF70000F8F7A4
:102470000000F6F70000F4F70000F2F70B46014603
:1024800092001846FDF742BF2DE9F04114460E00B8
:10249000074610D00121FFF70FFFE41CA50801F04B
:1024A000B5F9154C38462760FFF71CFFC4E9010653
:1024B0000020E06017E00020BDE8F081A068002364
:1024C0000268022001F064F910B101F057F9F2E757
:1024D0002068001D2060A068001DA060E068401C0E
:1024E000E060A84203D0D4E900108142E6D901F0AF
:1024F00045F90120E0E70000A401002070B5064680
:1025000001F0A8FA1A4C0546B6F5005F18D008DCB1
:10251000042E1BD0082E2AD1E06800F02BF8E068CA
:1025200009E0B6F5804F16D0B6F5004F1FD12069EF
:1025300000F020F820698560BDE8704003F0B8BF66
:10254000206800F017F8206885600CE0606800F0F3
:1025500011F8616803E0A06800F00CF8A168012898
:102560008D6004D10846BDE8704003F009BD70BD20
:102570008401002010B504468188006801F060FAEB
:10258000207410BD10B5044601F064FAA060A18863
:102590000022206801F059FA2046FFF7EBFF207473
:1025A00010BD10B5044601F055FAA060A1880122C3
:1025B000206801F04AFA2046FFF7DCFF207410BDC6
:1025C00003484078012802D1024805F09DBC7047BD
:1025D000A46900200850002004490A7D4A75087546
:1025E000824201D00120887570470000A469002054
:1025F00070B503F00BFD0646294C05F093F82078E2
:1026000000284BD0A07D012804D1264805F066FCA7
:102610000020A075207D05280ED2DFE800F003051C
:1026200007090B00204D09E0204D07E0204D24E074
:10263000204D03E0204D01E002281ED096ED0D0A4A
:1026400084ED010A96ED0A0A164884ED020A94ED1B
:10265000030A05F006FD94ED010A0221114805F078
:10266000EDFC94ED020A01210E4805F0E7FC294635
:10267000BDE870400B4805F0A7B90A480F4990ED36
:10268000450AD1ED000A30EE600A84ED010AB0F986
:10269000020100EE100AB8EEC00AD5E770BD0000D6
:1026A000A469002038580020846800204466002077
:1026B00064670020046400202465002024040020B6
:1026C0000B480178002911D0017D05290ED2DFE8E1
:1026D00001F0030507090B00012106E0022104E0D7
:1026E000032102E0042100E00521C17570470000CC
:1026F000A469002000487047A46900200D4810B567
:10270000012141700170002181750221017541751F
:102710000321C17508494FF47A60A1F80001FFF761
:10272000C1FA40F6B83000F0CBFFBDE81040002001
:10273000FFF752BFA46900203858002010B5194C8B
:102740002DED028BB0EE408AFEF706FA164990F89E
:1027500024000978884201D1144800E01448D4EDDF
:10276000030A90ED000AF4EEC00AF1EE10FA04DD5F
:10277000B5EEC08AF1EE10FA0CDC0E4890ED000ABE
:10278000F4EEC00AF1EE10FA09D2B5EEC08AF1EE0D
:1027900010FA04D29FED080ABDEC028B10BDB0EE1A
:1027A000480AF9E7A4690020E0C8000818040020DE
:1027B000140400201C0400200000000010B52DEDC2
:1027C000028BB0EE408AFEF7C7F9144A90F8241045
:1027D000127891421FD0D0ED020A114890ED000A04
:1027E000B1EE401AF4EEC10AF1EE10FA04D2B5EEE1
:1027F000C08AF1EE10FA09DCF4EEC00AF1EE10FA2C
:1028000009DDB5EEC08AF1EE10FA04D29FED050A9B
:10281000BDEC028B10BDB0EE480AF9E7E0C8000835
:1028200020040020000000000348D0ED030A30EE31
:10283000800A80ED030A7047A46900200348D0EDA8
:10284000040A30EEC00A80ED040A7047A469002033
:10285000074C02E0012008F0ADFB20680028F9D009
:10286000FFF7C6FEFFF72CFFFFF7AAFEF2E7000016
:10287000D803002078B50024009490F83C20012A69
:1028800019D0012280F83C200A6807230568092A2C
:1028900013D9EE680A3A02EB420293409E43EE607F
:1028A0000B788A680A3B03EB43039A400368DD68B0
:1028B0002A43DA6010E0022078BD2E6902EB420262
:1028C00093409E432E610B788A6803EB43039A4042
:1028D00003681D692A431A614A681F23072A13D215
:1028E00005686E6B521E02EB820293409E436E633C
:1028F0000B790A885B1E92B203EB83039A4003684C
:102900005D6B2A435A6327E005680D2A12D22E6BAD
:10291000D21F02EB820293409E432E630B790A88FA
:10292000DB1F92B203EB83039A4003681D6B2A43BB
:102930001A6311E0EE6A0D3A02EB820293409E4365
:10294000EE620B790A880D3B92B203EB83039A4047
:102950000368DD6A2A43DA62164B0568144A9D4211
:1029600006D10D68122D03D1556845F480055560D8
:1029700005689D4218D10B68102B01D0112B13D183
:10298000536843F400035360096810290CD10A49C5
:102990000A4A0968B1FBF2F101EB8101490000E04C
:1029A000491E00910029FBD180F83C40002078BDF1
:1029B00000230140002001404800002040420F0059
:1029C00070B504004FF0000503D0206C002610B154
:1029D00007E0012070BD204600F01CF8666484F812
:1029E0003C60206CC00610D4206C20F4885040F06D
:1029F000020020642046FDF7CBFF6664206C20F0C7
:102A0000020040F00100206400E0012584F83C60F1
:102A1000284670BDF0B587B0064614216846FDF71C
:102A200090FC1F493068884238D11E480025016853
:102A300041F480710160006800F4807005901948CD
:102A40001438016841F0040101600068032700F0B8
:102A5000040005900720CDE9000769460295124859
:102A600000F0F8FE124C1148C4E900050015A560FD
:102A7000C4E90350800060618000A0618011C4E956
:102A8000070504206062C4E90A752046256300F04A
:102A900089FD08B1FFF7FEF9B463A66307B0F0BD86
:102AA00000200140443802400008024070640240A7
:102AB0000C07002090F82020012A07D0022A05D018
:102AC000416A41F4802141620120704700684269F7
:102AD0000A43426100207047F0B590F82050046826
:102AE000A468012D05D0022D03D0416A41F4802154
:102AF0005DE014F0406F01D1E50055D5C4F30164E9
:102B0000022C03D9416A41F4000150E00125A5409F
:102B10001D608D684FF4C0739DB1CE6835434E681B
:102B200045EAC605066803EB0417F5514FF4C27574
:102B3000076805EB04150E697E51097D012905D052
:102B400009E00E88CD6845EA4655EBE701684E5925
:102B500046F480764E511179D579567941EA05616E
:102B600095792D0445EA062529434FF4C676056874
:102B700006EB0416A9511178D57841EA05619578DC
:102B800052782D0445EA022211434FF4C4750268BD
:102B900005EB04155151006803EB0411425842F053
:102BA000010242500020F0BD416A41F4001141622F
:102BB0000120F0BD10B590F82020012A07D0022A8C
:102BC00005D0416A41F480214162012010BD3B489B
:102BD000D0F8002242F00102C0F80022D0F8002212
:102BE00022F47C52C0F80022D0F800224B6A42EA5C
:102BF0000322C0F800220A7D02F01F0301229A403E
:102C0000D0F81C329343C0F81C32CB69B3B9D0F86A
:102C10000C329343C0F80C328C894B6864F31F4329
:102C20004C6900EBC404C4F840320C890B6864F3AF
:102C30001F434C6900EBC404C4F84432CB69012B38
:102C400016D1D0F80C321343C0F80C320C884B6804
:102C500064F31F434C6900EBC404C4F840320C8990
:102C6000CB6864F31F434C6900EBC404C4F84432DE
:102C70008B69002BD0F804320ED01343C0F8043215
:102C80000B69002BD0F8143208D01343C0F814326B
:102C9000096A012904D008E09343EFE79343F5E77D
:102CA000D0F81C121143C0F81C12D0F8001221F009
:102CB0000101C0F80012002010BD000000640040B7
:102CC000704730B590F82040012C05D0022C03D07D
:102CD000416A41F480215DE00468002955D02469EF
:102CE000A40754D04FF4D874056804EB01142D598F
:102CF00015F00405956005682D594ED0ED08556016
:102D000005682C5904F00204D4604FF4DA740568A5
:102D100004EB01142D5905F00F05156105682D59B7
:102D2000C5F30725956105682C59240C54614FF4AF
:102D3000DC72046802EB0112A4581C700468A458E9
:102D4000240A5C700468A458240C9C700468A2587F
:102D5000120EDA704FF4DE72046802EB0112A4580E
:102D60001C710468A458240A5C710468A458240CDB
:102D70009C710468A258120EDA71006881B1016971
:102D800041F020010161002030BDE468A8E7416AFC
:102D900041F400114162012030BD6D0D1560AFE7B7
:102DA000C16841F02001C160EDE70246002092F8C1
:102DB0002010012901D002290CD111688A68520122
:102DC00000D501208A68120100D5401C8968C9001D
:102DD00000D5401C70472DE9F05F054600680024CF
:102DE0004669D0F804908768D0F80CB0D0F810A0ED
:102DF000D0F81880F10748D0F90714D0012181607C
:102E0000B80703D5284600F036FA0CE0780702D55B
:102E10004FF4006407E0380702D54FF4805402E015
:102E2000284600F027FAF80516D529684FF4807077
:102E30008860B80503D5284600F01FFA0CE0780535
:102E400002D544F4005407E0380502D544F4804428
:102E500002E0284600F010FAF80316D529684FF46E
:102E600080308860B80303D5284600F008FA0CE0EB
:102E7000780302D544F4004407E0380302D544F453
:102E8000803402E0284600F0F9F9300707D55FEA00
:102E9000CB6004D52968102044F40074C860700722
:102EA0004FF0080707D55FEA0B7004D52868C760A4
:102EB000284600F09BF9B00706D52868C06880074F
:102EC00002D0284600F094F9700607D55FEACA6080
:102ED00004D52968102044F480640861B00607D541
:102EE0005FEA0A7004D528680761284600F092F965
:102EF000F00606D528680069800702D0284600F051
:102F00008AF9B00308D55FEAC96005D529681020A1
:102F10004860284600F080F9F00307D55FEA0970A1
:102F200004D528684760284600F0AAF9300446D541
:102F30005FEA497040D5F00504D55FEAC87001D05A
:102F400044F00104B00504D55FEA887001D544F06F
:102F50000204700504D55FEA487001D544F004040A
:102F6000300529D518F0700F26D008F070004028E1
:102F700015D006DC102809D020280AD0302816D118
:102F80000AE050280ED0602811D10EE044F0080469
:102F90000DE044F010040AE044F0200407E044F09F
:102FA000400404E044F0800401E044F480742868A4
:102FB000816921F070018161296804204860002C3A
:102FC00005D0686A204368622846FFF779FEBDE8AD
:102FD000F09F70B5040003D094F8200010B104E015
:102FE000012070BD204600F081F82068016821F0C2
:102FF0000201016000F02EFD0546052604E000F008
:1030000029FD401B0A2811D8206840688007F6D4A3
:103010002068016841F00101016000F01BFD0546D8
:103020000BE000F017FD401B0A2806D9606A40F447
:103030000030606284F82060D2E720684068C007F2
:10304000EFD0207E0128206801683DD021F080016A
:103050000160607E01282068016838D021F04001BD
:103060000160A07E01282068016833D021F0200192
:103070000160E07E0128206801682ED041F0100137
:103080000160207F01282068016829D021F0080113
:103090000160607F01282068016824D021F00401CC
:1030A0000160D4E902010843D4E904121143084342
:1030B0006168491E08432168C861002060620120E0
:1030C00084F82000002070BD41F08001C0E741F08D
:1030D0004001C5E741F02001CAE721F01001CFE728
:1030E00041F00801D4E741F00401D9E7F0B587B019
:1030F000044614216846FDF724F9374B3748DFF8BA
:10310000D4E01968D4F800C0344A02250326092700
:1031100010300024491CF44524D11960012907D13D
:10312000016841F000710160006800F000700590D6
:10313000106840F001001060106802AB00F0010060
:1031400005904FF4C050CDE9000583E8D0006946F2
:10315000234800F07FFB00220521142000F0ACFF83
:10316000142033E0DFF87CE0F44531D1D0F800C022
:103170004CF0806CC0F800C0D0F800C001290CF001
:10318000806CCDF814C0196007D1016841F000715E
:103190000160006800F000700590106840F00200C7
:1031A0001060106802AB00F0020005904FF4405030
:1031B000CDE9000583E8D00069460B4800F04AFBE2
:1031C00000220521402000F077FF402000F066FF3C
:1031D00007B0F0BD006400403800002030380240E5
:1031E00000000240006800400004024070470000F8
:1031F00010B5074B0446A3F11C020021FFF761FD47
:10320000034A2046BDE81040A2F11C01FDF7D8BDDD
:10321000504D0020704770477047000070B504465D
:1032200090F82000012804D0606A40F40020606219
:1032300018E0022084F820002068016821F00101D4
:10324000016000F007FC05460EE000BF00F002FC44
:10325000401B0A2808D9606A40F4003060620520EB
:1032600084F82000012070BD20684068C007EDD1BF
:10327000606270BD70477047704770477047704715
:10328000704770B54379012B1CD00126467102238B
:10329000037105682B6802F0100440F6FE72A2402C
:1032A0009343D1E900210A43A2401A432A600168EE
:1032B0000A68C023A3409A430A6006710021417145
:1032C000084670BD022070BD70B5040003D020799F
:1032D000002510B105E0012070BD6571204600F0A9
:1032E00007F802202071256101202071002070BDA7
:1032F00010B586B0044614216846FDF722F811493E
:10330000206888421CD110480021026842F0005217
:103310000260006800F0005005900B481038026809
:1033200042F001020260006800F0010005901020E8
:1033300000900320CDE901016946044800F08AFAB3
:1033400006B010BD0074004040380240000002404A
:103350002DE9F0410446876D00F07CFB064694F8A9
:1033600035000025022806D08020606584F834509E
:103370000120BDE8F0812068016821F0160101609C
:103380002068416921F080014161206C08B9A06C7E
:1033900020B12068016821F00801016020680168FF
:1033A00021F0010101600BE000F054FB801B0528B7
:1033B00006D92020606504F8345F03206070D8E7E8
:1033C00020680068C007EFD194F85C103F20884067
:1033D000B86004F8345F012060700020C9E790F8FD
:1033E0003510022903D08021416501207047052155
:1033F00080F835100068016821F0010101600020AB
:10340000704700002DE9F84304464FF00009CDF85D
:10341000009063484FF41651A56D0068B0FBF1F7BA
:103420002E6894F85C10082000FA01F131420FD0A8
:1034300021680A6852070BD50A6822F004020A6064
:1034400094F85C108840A860606D40F001006065F1
:1034500094F85C104FF0010808FA01F0304208D0EF
:1034600021684969090604D5A860606D40F0020032
:10347000606594F85C1004208840304208D02168D0
:103480000968890704D5A860606D40F00400606594
:1034900094F85C1010208840304218D021680968E8
:1034A000090714D5A86020680168490304D500689D
:1034B000000308D5A16C07E00168C90503D40168C1
:1034C00021F008010160216C09B12046884794F879
:1034D0005C1020208840304231D021680968C9063C
:1034E0002DD5A86094F8350005282068016806D01D
:1034F000490347D5006800031DD4616C1CE021F02E
:10350000160101602068416921F080014161206C51
:1035100008B9A06C20B12068016821F008010160A1
:1035200094F85C103F208840A86084F8349084F8B8
:103530003580216D1FE0E16B09B120468847606D41
:1035400000282BD0606DC00714D0052084F835000A
:103550002068016821F0010101600098401C009082
:10356000B84203D820680068C007F6D184F83490C8
:1035700084F83580E16C002910D001B02046BDE808
:10358000F04308470168C905D5D4016821F010014E
:10359000016084F8349084F83580CCE7BDE8F88386
:1035A000480000202DE9F041044600F053FA064699
:1035B0005CB1002584F83450022084F8350020687E
:1035C000016821F0010101600DE00120BDE8F081FA
:1035D00000F040FA801B052805D9202060650320F3
:1035E00084F83500F2E720680068C007F0D122684F
:1035F000116820480140D4E901031843D4E9033697
:103600003343184363691843A3691843E3691843B4
:10361000236A18430843616A042903D1D4E90B13D0
:1036200019430843106020684069666A20F007016A
:1036300030460E43012704280CD1A06A0643E06AF5
:1036400040B12046FEF7D2FB20B14020606584F8EF
:103650003570BAE7206846612046FEF7B3FB94F860
:103660005C203F2191408160656584F835700020C1
:10367000ACE700003F8010F070B5044690F83400CD
:10368000002501280CD0012084F8340094F835601E
:103690000020012E06D084F834000225284670BD93
:1036A000022070BD022684F8356060652046FEF772
:1036B000C7FB2068016841F001010160EEE70000EE
:1036C00070B5044600F0C6F90546601C02D00448F7
:1036D0000078044400F0BEF9401BA042FAD370BD4C
:1036E0003C0000202DE9F047044622480F46017EA9
:1036F00001290AD00121804601764CF25039484612
:10370000FEF7AEFC020003D02FE00220BDE8F087F8
:103710004FF0FF3038602068174D012801D0A668AF
:103720001CE0207C6168FEF709FC4846FEF798FC27
:103730000246286820F00400286014E0217C30460E
:10374000FEF7AAFB4846FEF78BFC0200286820F033
:10375000FA00286001D03E6005E0761CD4E9021032
:103760000844B042EAD8FEF7BFFB002188F81810E1
:103770001046CBE724100020103C024003480168AB
:1037800041F000410160002070470000103C024001
:103790002DE9F0471B4E05461446307E1F468946EC
:1037A000012808D0012030764CF250384046FEF710
:1037B00057FC18B114E00220BDE8F0879DB1012D3F
:1037C00016D0022D19D022463B464846FEF7DAFBBA
:1037D0004046FEF745FC0C490A6822F001020A60E7
:1037E00000213176E8E7E1B24846FEF7BBFBEFE7A0
:1037F000A1B24846FEF7DCFBEAE721464846FEF761
:10380000E9FBE5E724100020103C024007490020B6
:103810000A68002A09DA054A054B0C3A1360054B81
:1038200013600968002900DA01207047103C02404B
:1038300023016745AB89EFCDFEF760BE044910B5A3
:103840000A68024202D00860FFF7F6FF10BD0000D0
:10385000143C01402DE9F84FDFF8B8A10022012502
:103860000AF1040B03264FF00F090BF1040E00BF01
:103870000B6805FA02F42340A3426FD10F7907F0D9
:103880000307012F01D0022F16D187684FEA4208A3
:1038900006FA08FC27EA0C07D1F80CC00CFA08FC61
:1038A0004CEA070CC0F808C04768A7430C79C4F37A
:1038B000001494403C4344600C79E443A4070AD0CC
:1038C000C4684FEA420C06FA0CF7BC438F6807FA4B
:1038D0000CF72743C7600C7904F00304022C12D1C3
:1038E000D40800EB840CDCF820405707FF0E09FADF
:1038F00007F824EA0804D1F8108008FA07F848EA23
:103900000408CCF8208004684FEA420C06FA0CF751
:10391000BC430F7907F0030707FA0CF7274307604A
:103920004C68E40070D53C4C276847F4804727601A
:10393000246822F0030704F480440094374C07EB1A
:10394000040CDCF8084897074FEA177809FA08F7DB
:10395000BC43334FB84202D1002724E054E0314F3A
:10396000B84201D101271EE02F4FB84201D10227F2
:1039700019E02E4FB84201D1032714E02C4FB84272
:1039800001D104270FE02B4FB84201D105270AE0EF
:10399000294FB84201D1062705E0284FB84201D18E
:1039A000072700E0082707FA08F72743CCF808782C
:1039B000DAF800405746D1F804C09C435FEACC3C9B
:1039C00000D51C433C60DBF800405F46D1F804C0E2
:1039D0009C435FEA8C3C00D51C433C60DEF8004011
:1039E0007746D1F804C09C435FEACC2C00D51C4339
:1039F0003C60084F0C373C68D1F804C09C435FEA38
:103A00008C2C00D51C433C60521C102AFFF430AFB4
:103A1000BDE8F88F003C01404438024000300140CE
:103A2000000002400004024000080240000C024076
:103A3000001002400014024000180240001C024026
:103A40000069084000D0012070470AB181617047C9
:103A50000904FBE701488068704700003C00002033
:103A600070B5040025D094F83D00002520B984F8F5
:103A70003C50204600F04AFA242084F83D0020689B
:103A8000016821F0010101602068016841F40041F2
:103A900001602068016821F40041016000F0F8FB3A
:103AA0004D4A6168914201D84C4900E04C49884236
:103AB00001D2012070BD4B492368B0FBF1F15E6873
:103AC00026F03F060E435E606368934206D94FF4CA
:103AD000967359434FF47A73B1FBF3F12368491C91
:103AE0001E6A26F03F06314319626168914210D880
:103AF0004900401EB0FBF1F2521CC2F30B02042A33
:103B000001D2042022E0B0FBF1F0401CC0F30B0016
:103B10001CE0A268F2B301EBC10303EB0116431EE4
:103B2000B3FBF6F35B1C43F480431B0549D092B30F
:103B300001EBC10202EB0111401EB0FBF1F0401C91
:103B4000C0F30B0040F4804040F400402168CA6993
:103B50004CF6FF739A431043C861D4E90710014340
:103B60002068026822F0C00211430160D4E9030119
:103B700001432068826848F2FF339A431143816011
:103B8000D4E9050108432168CA6822F0FF02104306
:103B9000C86001E00EE016E02068016841F0010114
:103BA00001602564202084F83D00256384F83E50A0
:103BB000002070BD01EB4106431EB3FBF6F35B1C16
:103BC000B3E70120C2E701EB4101401EB0FBF1F079
:103BD000401CC0F30B00B7E7A086010080841E00E4
:103BE00000093D0040420F002DE9F84F1F46904666
:103BF0008A460446DDF82890FFF72CFF054694F826
:103C00003D0020287FD119230122404920460095FC
:103C100002F074F8002876D194F83C00012872D0A4
:103C2000012084F83C0020680168C90703D10168BD
:103C300041F0010101602068016821F40061016028
:103C4000212084F83D00102084F83E0000262664E0
:103C5000C4F824806785608D20852D48E0622B465E
:103C60004A465146204601F057FF90B92068416905
:103C70008069009036E02A464946204602F0F0F876
:103C800050B1206C042804D12068016841F400710F
:103C900001600120BDE8F88F606A21680078086142
:103CA000606A401C6062618D491E6185218D491EDC
:103CB00089B2218522685369DB435B070BD451B17C
:103CC00000781061606A401C6062608D401E6085F3
:103CD000208D401E20852A464946204601F0E8FFF7
:103CE0000028CED1208D0028C5D154F83D0B0168A5
:103CF00041F400710160202004F81E09E677667720
:103D00000020C7E7FFE70220C4E700000200100020
:103D10000000FFFF2DE9FF4F83B09A46DDE91197C0
:103D200093460446DDF84080FFF794FE054694F87C
:103D30003D00202870D119230122714920460095A9
:103D400001F0DCFF0028F5D194F83C00012863D095
:103D5000012084F83C0020680168C90703D101688C
:103D600041F0010101602068016821F400610160F7
:103D7000222084F83D00402084F83E00002626647E
:103D8000C4F82480A4F82A90608D20855D48E06204
:103D9000CDE9007553465A462046049901F00AFFC2
:103DA00000287CD1208DD0B1012821D002282068A4
:103DB00024D0416980690090208D032869D80128AA
:103DC0002BD0514902283B464FF00002009559D0B4
:103DD0008846204601F092FF002860D13CE0206830
:103DE000416981690091016841F40071016077E0E7
:103DF0002068016821F480610160F0E7016821F426
:103E0000806101602068016841F400610160206800
:103E100041698069009063E06FE02A463946204698
:103E200001F0EBFF98BB20680069616A08704EE002
:103E30002068016841F40071016020680069616ACE
:103E40000870606A401C6062218D491E2185618D69
:103E5000491E6185216838E02068016821F480618D
:103E6000016020680069616A0870606A401C6062D5
:103E7000208D401E2085608D401E60853B460022BF
:103E800041460095204601F039FF00B9D0E706E031
:103E9000FFE72A463946204601F0AFFF18B101205E
:103EA00007B0BDE8F08F20680069616A0870606A39
:103EB000401C6062218D491E2185618D491E6185EE
:103EC00021684A69D24352070AD409690170606ABD
:103ED000401C6062208D401E2085608D401E6085E4
:103EE000208D00287FF468AF202084F83D0084F8FE
:103EF0003E6084F83C600020D2E70220D0E700005A
:103F0000020010000000FFFF04000100F0B587B0C0
:103F1000044614216846FCF714FA2768204CDFF8A1
:103F20007CC01F4912220123032504261D4810349A
:103F3000674515D10F6847F002070F60096801F067
:103F40000201059129028DE86E006946FFF782FCA7
:103F5000206840F400102060206800F4001019E090
:103F6000DFF844C0674516D10F6847F002070F60BD
:103F7000096801F0020105914FF440618DE86E007F
:103F80006946FFF767FC206840F4800020602068E5
:103F900000F48000059007B0F0BD00000054004020
:103FA0003038024000040240005800400248816856
:103FB00002781144816070473C0000200B4810B526
:103FC000016841F400710160016841F480610160A1
:103FD000016841F480710160032000F08DF8002039
:103FE00000F006F800F03EF8002010BD003C024052
:103FF00010B5014688B00022372000F05DF8372068
:1040000000F04CF813480024016841F020010160E1
:10401000006805A900F020000690684600F018F935
:1040200000F036F90C494000B0FBF1F10C480B4AA6
:10403000491E026040F2E732C0E90324C0E90114DE
:1040400000F06CFC10B1012008B010BD044800F075
:104050000BFDF9E74038024040420F0000140040D9
:10406000DC0F00200C4882B0016841F480410160FF
:10407000006800F4804000900748001F016841F08C
:10408000805101600068002200F0805000900F21F4
:10409000901E02B000F010B844380240002809DB3E
:1040A00000F01F02012191404009800000F1E02052
:1040B000C0F8001170470000F0B40E4B1B680C46AE
:1040C000C3F30223C3F10705042D00D90425191DEC
:1040D000072901D2002300E0DB1E012606FA05F1C4
:1040E000491E214099409E40761E16403143F0BC47
:1040F00005F064BF0CED00E0064900F00702086817
:104100004FF6FF03184040EA0220034A10430860BC
:10411000704700000CED00E00000FA052DE9F047C3
:104120000E46050065D0DFF81481D8F80000F7B21C
:1041300000F00700B04207D288F80070D8F80000FD
:1041400000F00700B04254D128683D4C810712D5D9
:10415000400703D5206840F4E0502060287800072D
:1041600003D5206840F4604020602068A96820F0F2
:10417000F000084320602878C0072DD030496868D7
:104180000839012812D0022813D0032811D0096859
:10419000890700292DDA216821F0030101432160FC
:1041A000FFF758FC814641F2883A0EE0096889031E
:1041B000EFE709688901ECE7FFF74CFCA0EB090188
:1041C000514502D90320BDE8F0872068696800F0F6
:1041D0000C00B0EB810FEFD1D8F80010404601F091
:1041E0000701B14207D90770006800F00700B0422C
:1041F00001D00120E7E72878400705D52068E96865
:1042000020F4E050084320602878000706D5206895
:10421000296920F4604040EAC100206000F058F8AD
:104220002168084AC1F30311515CC840064908607F
:1042300006480068FFF7DCFE0020C4E7003C0240AF
:1042400008380240A8C800084800002040000020AC
:104250000F2202600C4A136803F0030343601368E3
:1042600003F0F0038360136803F4E053C360126843
:104270004FF4E05303EAD20202610448006800F000
:10428000070008607047000008380240003C024008
:104290000448054900680968044AC1F38221515C59
:1042A000C84070474800002008380240B8C80008DD
:1042B0000448054900680968044AC1F34231515C69
:1042C000C84070474800002008380240B8C80008BD
:1042D000154810B5006810F00C02144813D01449AA
:1042E000042A0FD0082A0ED10F4C241F22682368FD
:1042F00002F03F025B0207D52068C0F38810A0FBE4
:10430000010106E0084610BD2168C1F38811A1FB38
:1043100000010023FBF7B6FF2168C1F30141491CEE
:104320004900B0FBF1F010BD083802400024F40051
:10433000001BB7002DE9F84F04006ED02078DFF89D
:104340004C93C007A9F104054AD009F104000168A3
:10435000C1F38101012908D00068C0F3810002285F
:104360000AD1D9F80000400206D52868800337D565
:1043700060680028E1D033E06068B0F5803F10D07D
:10438000B0F5A02F286810D020F48030286028686D
:1043900020F4802028606068A8B1FFF75BFB064628
:1043A0000DE0286840F48030F4E740F48020286075
:1043B000F7E700BFFFF74EFB801B642873D828681F
:1043C0008003F7D50CE0FFF745FB064605E000BF8C
:1043D000FFF740FB801B6428F0D828688003F7D4DF
:1043E0002078DFF8AC8280074FF0000A3ED5A7485E
:1043F000001D016811F00C0F08D00068C0F38100A7
:1044000002280BD1D9F80000400207D428688007A1
:1044100016D5E068012800D112E033E1E068B8B1B8
:104420000120C8F80000FFF715FB064605E000BFB5
:10443000FFF710FB801B0228C0D828688007F7D53B
:104440002868216920F0F80040EAC10028600DE0EA
:10445000C8F800A0FFF7FEFA064604E0FFF7FAFAF4
:10446000801B02281FD828688007F7D4207800070F
:1044700022D5864F87486169703771B1012101608B
:10448000FFF7E8FA064604E0FFF7E4FA801B02288B
:1044900009D838688007F7D50EE0C0F800A0FFF70C
:1044A000D9FA064605E082E0FFF7D4FA801B02281D
:1044B0007DD838688007F7D42078400768D5DFF8C2
:1044C000CCB100270BF13C0BDBF80000C0000BD493
:1044D000DBF8001041F08051CBF80010DBF8000051
:1044E000012700F0805000906B4E3068C00510D45A
:1044F000306840F480703060FFF7ACFA009005E05F
:10450000FFF7A8FA0099401A022850D83068C00571
:10451000F6D55E4EA0686C3601280FD005283068AD
:1045200010D020F001003060306820F004003060CE
:10453000A068B8B1FFF78EFA00900FE0306840F045
:104540000100F4E740F004003060F7E7FFF782FA7B
:104550000099411A41F28830814266D8306880075C
:10456000F4D50EE0FFF776FA009007E0FFF772FA55
:104570000099411A41F28830814256D8306880074C
:10458000F4D42FB1DBF8001021F08051CBF80010EB
:10459000A069C8B33D49091D0968C1F38101022919
:1045A0004AD00228504607D0C8F8600000E03CE03E
:1045B000FFF750FA04463BE04746C8F86000FFF7B3
:1045C00049FA064605E000BFFFF744FA801B0228BF
:1045D0002BD828688001F7D4D4E907010843A16AE1
:1045E0002E4A490802EB0141626A41EA82110843FE
:1045F00094F82C1040EA0161C9F8001001203866D7
:10460000FFF728FA044606E03EE000BFFFF722FA73
:10461000001B022809D828688001F7D534E000BFC4
:10462000FFF718FA001B022802D90320BDE8F88F13
:1046300028688001F4D427E00128F7D0D9F80000D9
:10464000E26900F4800191421CD1226A00F03F012E
:10465000914217D147F6C071626A0140B1EB821FE7
:1046600010D1A26A4FF0FF3300F4403103EB520245
:10467000B1EB024F06D194F82C1000F07060B0EB53
:10468000016F01D00120D1E70020CFE704380240BC
:1046900000004742800E4742007000400000FFFFCC
:1046A00070B5040009D0606A002540B125616561DC
:1046B000A56294F8510040B10CE0012070BD606823
:1046C000B0F5827FF4D0E561F2E784F850502046DF
:1046D00000F044F8022084F851002068016821F0BD
:1046E00040010160A088218900F4827001F4044136
:1046F0000843A18901F400610843217C01F0020113
:104700000843217D01F001010843218B01F4007170
:104710000843217F01F03801084394F8201001F08C
:1047200080010843218D01F400510843216808608D
:10473000A069042101EA104094F8241001F010014E
:104740000843216848602068C16921F40061C161A3
:104750006565012084F85100002070BD2DE9F0410D
:1047600086B0064614216846FBF7EBFD2C493068FD
:10477000884252D12B480024016841F480510160E5
:10478000006800F48050059026481438016841F014
:10479000010101600068694600F001000590E02019
:1047A0000090022001900120029003200390052038
:1047B00004901D48FFF74EF81D4D1C484FF0C06790
:1047C0002860C5E901744FF48068C5E903486C614D
:1047D0007812AC61C5E9074028466C62FEF7E2FE3C
:1047E00008B1FDF757FBF564AE63114D0F48603516
:1047F0004830E5E802074020A5E811010C4845F8DB
:1048000014496030AC61EC612C626C62FEF7CAFE48
:1048100008B1FDF73FFBB564AE6306B0BDE8F081BB
:104820000030014044380240000002401064024061
:10483000D00800207047704710B590F83C20012A3E
:1048400022D0012280F83C20CA688C6822F4407291
:1048500022434C6822F4806222430C6822F40062F6
:1048600022430C6922F4805222434C6922F4005204
:104870002243C969002322F480420A4301684A6442
:1048800080F83C30002010BD022010BD70B590F8BB
:104890003C20012A32D0012480F83C40022280F8DA
:1048A0003D2003685A689D6822F070060A6832430A
:1048B0005A60134B02689A4214D0B2F1804F11D063
:1048C000104B9A420ED0104B9A420BD00F4B9A428B
:1048D00008D00F4B9A4205D00E4B9A4202D00E4B95
:1048E0009A4204D1496825F080031943916080F809
:1048F0003D40002180F83C10084670BD022070BD8C
:10490000000001400004004000080040000C00408E
:1049100000040140004001400018004010B50400B0
:1049200003D094F83D0010B107E0012010BD002035
:1049300084F83C00204600F01FF8022084F83D0077
:10494000211D206805F022F8012084F8460084F833
:104950003E0084F83F0084F8400084F8410084F869
:10496000420084F8430084F8440084F8450084F849
:104970003D00002010BD000008B5324902683248F1
:104980008A4205D1016841F001010160006812E02E
:104990002D49091FB2F1804F08D02C4B9A420ED1FD
:1049A000086840F00200086008681BE0086840F0F2
:1049B00001000860086800F00100009008BD244B69
:1049C0009A4207D1086840F010000860086800F0BB
:1049D0001000F2E71F4B9A4207D1016841F0020133
:1049E0000160006800F00200E7E71B4B9A4207D124
:1049F000016841F480310160006800F48030DCE738
:104A0000164B9A4207D1016841F4003101600068F9
:104A100000F40030D1E7124B9A4207D1016841F40B
:104A200080210160006800F48020C6E70D488242C2
:104A3000C4D1086840F040000860086800F04000F9
:104A4000BBE7000000000140443802400004004081
:104A500000100040000401400040014000440140BB
:104A6000004801400018004090F83D10012901D095
:104A700001207047022180F83D100168CA6842F0A9
:104A80000102CA6000681149884214D0B0F1804F19
:104A900011D00F4988420ED00E4988420BD00E49E2
:104AA000884208D00D49884205D00D49884202D07D
:104AB0000C49884204D1816801F00701062903D01E
:104AC000016841F0010101600020704700000140D1
:104AD0000004004000080040000C004000040140B9
:104AE000004001400018004070B5044690F83C00BA
:104AF000012817D0012584F83C50022084F83D009D
:104B00002068826822F0770222F47F42826008687F
:104B1000502830D00DDC20284DD005DC98B310286B
:104B20003BD148E0022070BD302844D0402834D129
:104B300039E0602828D0702806D0B0F5805F2CD0EE
:104B4000B0F5005F29D10AE0CB68D1E901212068E6
:104B500004F08DFF2068816841F0770109E0CB689F
:104B6000D1E90121206804F082FF2068816841F4C6
:104B70008041816011E0CA684968206805F04CF8FE
:104B80005021206807E016E0CA684968206805F0EF
:104B900054F86021206804F074FF84F83D50002030
:104BA00084F83C0070BDCA684968206805F034F894
:104BB00040212068EFE7226801461046EBE72DE927
:104BC000F0410D46040003D094F83D0018B108E010
:104BD0000120BDE8F081002084F83C00204600F070
:104BE00041F8022084F83D002068816844F2070201
:104BF00091438160211D206804F0C8FE22689068FE
:104C00009169166A2B68AF69034340F20330814310
:104C100041EA0721A868EF6908434FF6FC41884341
:104C2000E96840EA0720014328692F6A000140EA49
:104C30000730084369686D6926F0AA0646EA05153B
:104C4000294393602268906154F8460B0162012069
:104C500004F81F09E0752076E0762077A075002023
:104C6000B7E7000030B587B0044614216846FBF76B
:104C700068FB204824681E4D00221E49103802237C
:104C8000AC4216D10C6844F004040C60096801F0D1
:104C900004010591016841F0020101600068694664
:104CA00000F002000590C0200090CDE901321248CA
:104CB00018E0124DAC4219D10C6844F008040C60A5
:104CC000096801F008010591016841F001010160E6
:104CD0000068694600F00100059003200090CDE9CE
:104CE00001320748CDE90323FEF7B4FD07B030BD1C
:104CF000000800404038024000040240000C004020
:104D00000000024070B590F83E60044690F83F50B5
:104D100090F8423090F84320022021B104290ED0AF
:104D2000012E1BD114E0012E18D1012B16D184F8CD
:104D30003E0084F8420001220021206820E0012D7D
:104D40000CD1012A0AD184F83F0084F8430014E012
:104D5000012D03D1012B01D1012A01D0012070BD09
:104D600084F83E0084F83F0084F8420084F8430051
:104D700001220021206804F06DFE01220421206838
:104D800004F068FE2068016841F001010160002024
:104D900070BD704770B50446006801694FF00005AA
:104DA000C943890715D4C168C943890711D4E91ECD
:104DB000016101202077206880698007204602D0A9
:104DC000FFF7E7FF04E000F0F1F8204600F080F97B
:104DD000257720680169C943490717D4C168C943C9
:104DE000490713D46FF00401016102202077206885
:104DF000806910F4407F204602D0FFF7CAFF04E02C
:104E000000F0D4F8204600F063F9257720680169A6
:104E1000C943090716D4C168C943090712D46FF002
:104E200008010161042020772068C06980072046BE
:104E300002D0FFF7AEFF04E000F0B8F8204600F023
:104E400047F9257720680169C943C90617D4C168A5
:104E5000C943C90613D46FF01001016108202077FF
:104E60002068C06910F4407F204602D0FFF791FF10
:104E700004E000F09BF8204600F02AF9257720682E
:104E80000169C943C90708D1C168C943C90704D129
:104E9000891E0161204600F0BFF920680169C943FD
:104EA000090609D4C168C943090605D46FF0800119
:104EB00001612046FFF7BEFC20680169C94349062D
:104EC00009D4C168C943490605D46FF040010161A6
:104ED000204600F0ABF920680169C94389060BD46C
:104EE000C168C943890607D46FF0200101612046DB
:104EF000BDE87040FFF79FBC70BD000030B587B0C3
:104F0000044614216846FBF71CFA22482368002255
:104F100021490224834211D1086840F00100086051
:104F2000086800F00100059088150090CDE9014265
:104F30000120CDE903206946184812E0184D1948B0
:104F4000AB4212D10B6843F002030B60096801F019
:104F50000201059130210091CDE90142CDE9032400
:104F60006946FEF777FC07B030BD0F4DAB42FAD172
:104F70000B6843F002030B60096801F00201059120
:104F8000E9130091CDE901420921CDE903216946E8
:104F9000E7E7000000000140303802400000024016
:104FA000000400400004024000180040704770B543
:104FB000044690F83C000D4601280AD0012084F8F0
:104FC0003C0042B1042A18D0082A2AD00C2A4DD11C
:104FD00039E0022070BD206804F05CFD2068816922
:104FE00041F0080181612068816921F0040181613B
:104FF000206881692A69114311E0206804F07AFD74
:105000002068816941F4006181612068816921F42F
:1050100080618161206881692A6941EA0221816198
:1050200024E0206804F09CFD2068C16941F008017B
:10503000C1612068C16921F00401C1612068C169B2
:105040002A69114311E0206804F0BEFD2068C1699F
:1050500041F40061C1612068C16921F48061C161CE
:105060002068C1692A6941EA0221C161002084F8EF
:105070003C0070BD10B5040003D094F83D0010B1A1
:1050800007E0012010BD002084F83C00204600F01D
:105090001EF8022084F83D00211D206804F076FCF3
:1050A000012084F8460084F83E0084F83F0084F82C
:1050B000400084F8410084F8420084F8430084F8FA
:1050C000440084F8450084F83D00002010BD70477E
:1050D0007047000010B50446022249B104290ED0E1
:1050E000082913D094F84100012816D0012010BDE2
:1050F00094F83E000128F9D184F83E200FE094F89E
:105100003F000128F2D184F83F2008E094F84000E5
:105110000128EBD184F8402001E084F841200122ED
:10512000206804F097FC16492068164A884201D08E
:10513000904203D1436C43F40043436420688842A7
:1051400013D0B0F1804F10D00F4988420DD00F49D5
:1051500088420AD00E49884207D0904205D00D49B6
:10516000884202D00C49884204D1816801F00701CD
:10517000062903D0016841F001010160002010BD43
:10518000000001400004014000040040000800400D
:10519000000C0040004001400018004030B50446BB
:1051A0000D460068002204F055FC194B41F2111124
:1051B00020688A10984202D0164B984209D1036A9F
:1051C0000B4206D1036A134203D1436C23F400431C
:1051D00043642068036A0B4206D1016A114203D17D
:1051E000016821F00101016001203DB1042D08D0CA
:1051F000082D09D084F84100002030BD84F83E001D
:10520000FAE784F83F00F7E784F84000F4E700008D
:10521000000001400004014000680349884201D1B8
:10522000FEF7C4BE7047000000140040704770478E
:10523000704710F83D1F407808437047F8B5026882
:1052400004461068D168536910F00F0F4FF0000545
:1052500053D003F0010601F4907737435FD0C207C3
:1052600005D0CA0503D5226C42F001022264420730
:1052700005D5DA0703D0226C42F0020222648207CD
:1052800005D5DA0703D0226C42F00402226402073B
:1052900007D501F02002324303D0226C42F008020D
:1052A0002264226C002A34D0800604D5880602D5F8
:1052B000204604F001FD20684069216CC0F3801095
:1052C000090700D430B3204604F0DEFC20684169B1
:1052D00049061BD5416921F040014161A06BA8B18D
:1052E00059490165A06BFEF77AF8002811D0A06B30
:1052F000016D01B0BDE8F040084783060FD58B066D
:105300000DD52046BDE8F84004F0D6BC2046FFF796
:105310008FFFF8BD2046FFF78BFF2564F8BD266B95
:105320002023012E53D1C60651D5CE064FD5106885
:1053300050680090506940062BD5A16B0868406802
:105340000004000CEAD0A68D8642E7D9E085C86942
:10535000B0F5807F18D0D06820F48070D0602068CD
:10536000416921F0010141612068416921F040015A
:10537000416184F83E3025632068C16821F0100146
:10538000C160A06BFDF7E4FFA08DE18D401A81B2F2
:1053900019E0A08DE18D401A81B2E08D0028BDD0CA
:1053A0000029BBD0D06820F49070D060206842699A
:1053B00022F00102426184F83E3025632068C26811
:1053C00022F01002C2602046FFF731FFF8BD05064B
:1053D0002BD50D0629D594F83D002128F6D1A068DB
:1053E000B0F5805F01D12069B0B1206A411C216213
:1053F000216800784860E08C401E0004000CE084C6
:10540000E4D12068C16821F08001C1602068C168D2
:1054100041F04001C160F8BD206A0088C0F3080077
:105420005060206A801C2062E5E74006F3D54806FC
:10543000F1D5D168204621F04001D16084F83D309B
:1054400000F0DAF9F8BD0000799C000870B504009E
:1054500004D094F83D00002510B106E0012070BD95
:1054600084F83C50204600F023F8242084F83D00C6
:105470002068C16821F40051C160204604F074FC2A
:105480002068016921F4904101612068416921F09F
:105490002A0141612068C16841F40051C16025645E
:1054A000202084F83D0084F83E00002070BD0000FC
:1054B0002DE9F04F87B0054614216846FAF741FF01
:1054C000B148DFF8C0821038D5F800C00024AE4BD8
:1054D00002260321AD4A07154FF0006A4FF4807988
:1054E000C4454CD1D3F800C04CF4801CC3F800C0B4
:1054F0001B6803F480130593036843F004030360FF
:10550000036803F004030593036843F00803036092
:1055100000684FF0010800F00800059090148DE835
:10552000410103204FF0080BCDE9030B69461046FB
:10553000FEF790F904208DE841010320CDE9030B2B
:1055400069469348FEF786F9934E92483060C6E963
:1055500001A4C6E903477461C6E9064934623046CE
:105560007462FEF71FF808B1FCF794FCAE630022EA
:1055700005213520B563FEF79FFD352043E0DFF8B8
:105580001C82DFF804E24FF0070B0EF1040EC44555
:105590003ED1DEF8003043F01003CEF80030DEF8E4
:1055A000002002F010020592026842F0010202603F
:1055B0000068CDE9024100F0010005904FF4C060A1
:1055C000CDE90006CDF810B069467548FEF742F9FE
:1055D000714E744860363060C6E901A4C6E90347DD
:1055E0007461C6E90649346230467462FDF7DAFF39
:1055F00008B1FCF74FFCAE63002205212520B563FE
:10560000FEF75AFD2520FEF749FD07B0BDE8F08FF3
:10561000DFF89481C44537D11A6842F400321A6029
:105620001A6802F400320592026842F00102026038
:105630000068CDE9024100F0010005900C20CDE9A1
:105640000006CDF810B069465548FEF703F9524EF2
:105650005048C03678303060C6E901A4C6E9034737
:105660007461C6E90649346230467462FDF79AFFF8
:1056700008B1FCF70FFCAE63002205212620B563BC
:10568000FEF71AFD2620BEE7DFF82081C44539D198
:10569000D3F800C04CF4802CC3F800C01B6803F49E
:1056A00080230593036843F0040303600068CDE999
:1056B000024100F0040005904FF44060CDE900067F
:1056C000CDF810B069461046FEF7C4F83148384EA0
:1056D00018303060C6E901A4C6E903477461C6E921
:1056E0000649346230467462FDF75CFF08B1FCF78E
:1056F000D1FBAE63002205212720B563FEF7DCFC59
:10570000272080E72B4B9C457FF47FAFDEF800C05D
:105710004CF0200CCEF800C0DEF8003003F020037F
:105720000593036843F0040303600068029400F0EB
:1057300004000590C020CDE900060820CDE9031043
:1057400069461046FEF786F8194E16486036183836
:1057500030608005C6E90104C6E903477461C6E903
:105760000649346230467462FDF71CFF08B1FCF74D
:1057700091FBAE63002205214720B563FEF79CFC38
:10578000472040E7005000404038024000080240F7
:10579000000C024010600240FC0D0020001001408F
:1057A00000000240406402400044004000480040C5
:1057B0001C0F002000140140704790F83D30202B52
:1057C00018D1A9B1A2B190F83C30012B12D00162DE
:1057D0008284C28400210164212280F83D2080F867
:1057E0003C100068C16841F08001C1600020704732
:1057F0000120704702207047704700000048704742
:10580000986300207CB5794C0546042084F84C0050
:10581000FEF720F92065B5F80710ADF80010B5F8CF
:105820000910ADF802100622B5F80B00ADF804001F
:1058300000216B46DFED6E0A04F1540033F911606C
:1058400000EE106A00EB8106491CB8EEC00A03297D
:1058500020EE200A86ED000AF0DB90ED010AD21D51
:1058600084ED040A90ED000A2A4484ED050A90EDC7
:10587000020A84ED030A94ED0F2A84ED0C2AD4ED7C
:105880000E2AC4ED0B2A32F9010FADF8000000EE2C
:10589000100AB2F90210ADF80210B8EEC01AB2F94F
:1058A0000420ADF804209FED530AB2EE043A4F48AD
:1058B000C1EE000A01EE101A6030B8EEC11AC1EE56
:1058C000001A00EE102AC0ED000A30EEC22AB8EE2F
:1058D000C01A12EE101A81EE030AB7EE001AC0EDDC
:1058E000011A80ED020AC4ED0F0A4348C4ED101AF4
:1058F00084ED0E0A814205D994ED013A33EE013A66
:1059000084ED013A12EE102A3C498A4205DD94EDFD
:10591000012A32EE412A84ED012A94ED013A9FEDED
:10592000382A70EE622A43EE020A12EE902A824270
:10593000C4ED070A05D994ED003A33EE013A84ED3F
:10594000003A12EE902AD4ED002A8A4203DD72EE6C
:10595000C12AC4ED002A02EE820A84ED060AD4EDC3
:105960000D2A71EEE22A12EE902A824205D994EDB8
:10597000023A33EE013A84ED023A12EE900A88427E
:1059800002DC94ED021A05E0D4ED022A32EEC11ACF
:1059900084ED021A41EE021AC4ED081A94ED121AAF
:1059A00070EE810AC4ED070AD4ED110A30EE600AE8
:1059B00084ED060A06F05AFD012810D0124811495C
:1059C000006806F08BF80F48001F406838B10F4997
:1059D0004FF080500860BFF34F8FBFF36F8FFEF71B
:1059E00039F82065012084F84C007CBD98630020C4
:1059F000CDCCCC3D0000C842000035C3000035438B
:105A00000000B443E0010020F402002004ED00E0B7
:105A100010B500F051F8FEF71DF80849084C08656C
:105A2000206804F05AFA054914221439206804F059
:105A30005EFA00F007F8012010BD00009863002016
:105A4000DC0100200A489FED0B0A0021D0ED070A77
:105A5000491C642930EE800AFADBD0ED060AC0ED5D
:105A6000110ADFED050A80EE201A80ED121A704748
:105A700098630020000000000000C84210B50446F2
:105A8000806B0068016821F001010160A06B006873
:105A900004F020FAC0F114010648FFF7B3FEA16B31
:105AA000142009684860A06B0068016841F001019A
:105AB000016010BD8463002009489FED0A0A80ED53
:105AC000010A80ED000A80ED070A80ED060A80EDEC
:105AD0000F0A80ED0E0A80ED110A80ED120A704760
